:100000000C9434000C9449000C9449000C94490061
:100010000C9449000C9449000C9449000C9449003C
:100020000C9449000C9449000C9449000C9449002C
:100030000C9449000C9449000C9449000C9449001C
:100040000C9449000C9449000C9449000C9449000C
:100050000C9449000C9449000C9449000C944900FC
:100060000C9449000C94490011241FBECFEFD8E036
:10007000DEBFCDBF11E0A0E0B1E0EAEFF0E002C0EA
:1000800005900D92A032B107D9F70E946A000C9436
:100090007B000C9400001092C50087E68093C4009A
:1000A00088E08093C10086E08093C200089590911B
:1000B000C00095FFFCCF8093C6000895CF93DF93D7
:1000C000EC018991882319F00E945700FACFDF9143
:1000D000CF9108950E944B0080E091E00E945E0065
:1000E0002AEA32E085EE9FE0215030408040904087
:0A00F000D9F70000F1CFF894FFCF1C
:1000FA0048656C6C6F2066726F6D20626172652054
:10010A006D6574616C20776F726C64210D0A000052
:00000001FF
