:100000000C9434000C9451000C9451000C94510049
:100010000C9451000C9451000C9451000C9451001C
:100020000C9451000C9451000C9451000C9453000A
:100030000C9451000C9451000C9451000C945100FC
:100040000C9451000C9451000C9451000C945100EC
:100050000C9451000C9451000C9451000C945100DC
:100060000C9451000C94510011241FBECFEFD8E026
:10007000DEBFCDBF11E0A0E0B1E0E2E5FAE002C0F2
:1000800005900D92A830B107D9F721E0A8E0B1E0C2
:1000900001C01D92AF30B207E1F70E9489000C94B5
:1000A00027050C9400001F920F920FB60F92112497
:1000B0002F938F939F939BB180E189278BB98BB14D
:1000C00080588BB995B181E0892785B990910A0153
:1000D00081E0911180E080930A0180910801909164
:1000E000090101969093090180930801809108010C
:1000F000909109018F3F9F4721F4109209011092BE
:1001000008019F918F912F910F900FBE0F901F901C
:100110001895CF93DF93CDB7DEB72A970FB6F89433
:10012000DEBF0FBECDBF549A579A209A259A2D98BC
:100130008091810088608093810088E09DE39093A6
:100140008900809388008091810085608093810080
:1001500080916F00826080936F00789480E991E0D5
:100160000E9406046C0188EC90E00E9406047C0169
:10017000212C312C812C912C54019C0120543F4F77
:100180003E832D83C60180589E4F98878F83809130
:100190000A01882309F46EC08601DA82C9821A86B0
:1001A0001986E0910801F0910901FC83EB83298510
:1001B0003A85B901330F880B990B0E94E9022B0194
:1001C0003C01EB81FC81BF01FF0F880B990B0E9462
:1001D000E9029B01AC01C301B2010E949903E981CC
:1001E000FA816193719381939193FA83E9832985CD
:1001F0003A852F5F3F4F3A8729872436310589F6A4
:100200001A8309830C5F1F4FE981FA8124813581AC
:100210004681578160857185828593850E943F0262
:10022000E981FA8120813181428153810E949903C1
:100230002B013C01E981FA81248535854685578566
:1002400060897189828993890E94CD019B01AC01EB
:10025000C301B2010E94CE019B01AC01C501B401F2
:100260000E94CE014B015C012F8138852017310798
:1002700039F657C0FA86E986FA82E98200E010E092
:1002800080910801909109019C838B83B801012E14
:10029000000C880B990B0E94E9022B013C01EB81B9
:1002A000FC81BF01FF0F880B990B0E94E9029B01A3
:1002B000AC01C301B2010E9499030E94B102E9811D
:1002C000FA8161937193FA83E9830F5F1F4F0436BC
:1002D0001105B1F6E985FA859F012E5F3F4F3A87F8
:1002E000298784819581628173810E94A501808123
:1002F0009181689F9001699F300D789F300D112486
:100300008085918546815781841B950B820F931FB1
:10031000280E391E8D819E81E985FA858E179F07EB
:10032000C9F620E030E040E051E4C501B4010E948C
:100330003A02882329F0F8E02F16310409F027CF7C
:1003400085B121E0822785B922CF97FB072E16F4CD
:10035000009407D077FD09D00E94B90107FC05D0B1
:100360003EF4909581959F4F0895709561957F4FCC
:100370000895AA1BBB1B51E107C0AA1FBB1FA617EC
:10038000B70710F0A61BB70B881F991F5A95A9F73E
:1003900080959095BC01CD0108955058BB27AA27A0
:1003A0000E94E5010C945F030E94510338F00E9403
:1003B000580320F039F49F3F19F426F40C944E03AF
:1003C0000EF4E095E7FB0C944803E92F0E947003BC
:1003D00058F3BA17620773078407950720F079F47A
:1003E000A6F50C9492030EF4E0950B2EBA2FA02DD7
:1003F0000B01B90190010C01CA01A0011124FF27D2
:10040000591B99F0593F50F4503E68F11A16F040CC
:10041000A22F232F342F4427585FF3CF46953795CB
:100420002795A795F0405395C9F77EF41F16BA0B90
:10043000620B730B840BBAF09150A1F0FF0FBB1F3E
:10044000661F771F881FC2F70EC0BA0F621F731F87
:10045000841F48F4879577956795B795F7959E3FE4
:1004600008F0B0CF9395880F08F09927EE0F979575
:10047000879508950E94240308F481E008950E945E
:1004800053020C945F030E94580358F00E945103DA
:1004900040F029F45F3F29F00C94480351110C946B
:1004A00093030C944E030E94700368F39923B1F3F5
:1004B000552391F3951B550BBB27AA27621773078A
:1004C000840738F09F5F5F4F220F331F441FAA1F1E
:1004D000A9F335D00E2E3AF0E0E832D091505040DA
:1004E000E695001CCAF72BD0FE2F29D0660F771F88
:1004F000881FBB1F261737074807AB07B0E809F06E
:10050000BB0B802DBF01FF2793585F4F3AF09E3FF2
:10051000510578F00C9448030C9493035F3FE4F387
:10052000983ED4F3869577956795B795F7959F5F35
:10053000C9F7880F911D9695879597F90895E1E081
:10054000660F771F881FBB1F621773078407BA07E0
:1005500020F0621B730B840BBA0BEE1F88F7E0953B
:1005600008950E94B8026894B1110C949303089501
:100570000E94780388F09F5798F0B92F9927B751B8
:10058000B0F0E1F0660F771F881F991F1AF0BA9537
:10059000C9F714C0B13091F00E949203B1E0089500
:1005A0000C949203672F782F8827B85F39F0B93FF2
:1005B000CCF3869577956795B395D9F73EF49095EA
:1005C0008095709561957F4F8F4F9F4F0895E89468
:1005D00009C097FB3EF490958095709561957F4F8B
:1005E0008F4F9F4F9923A9F0F92F96E9BB27939539
:1005F000F695879577956795B795F111F8CFFAF449
:10060000BB0F11F460FF1BC06F5F7F4F8F4F9F4F79
:1006100016C0882311F096E911C0772321F09EE8D7
:10062000872F762F05C0662371F096E8862F70E03D
:1006300060E02AF09A95660F771F881FDAF7880F17
:100640009695879597F90895990F0008550FAA0B6D
:10065000E0E8FEEF16161706E807F907C0F01216D5
:100660001306E407F50798F0621B730B840B950BD8
:1006700039F40A2661F0232B242B252B21F408952D
:100680000A2609F4A140A6958FEF811D811D0895CA
:1006900097F99F6780E870E060E008959FEF80EC35
:1006A000089500240A9416161706180609060895D8
:1006B00000240A9412161306140605060895092E3E
:1006C0000394000C11F4882352F0BB0F40F4BF2BAD
:1006D00011F460FF04C06F5F7F4F8F4F9F4F0895ED
:1006E00057FD9058440F551F59F05F3F71F04795E3
:1006F000880F97FB991F61F09F3F79F087950895C8
:10070000121613061406551FF2CF4695F1DF08C0E6
:10071000161617061806991FF1CF86957105610503
:1007200008940895E894BB2766277727CB0197F9AB
:1007300008950E94AC030C945F030E94510338F0AB
:100740000E94580320F0952311F00C9448030C9458
:100750004E0311240C9493030E94700370F3959F31
:10076000C1F3950F50E0551F629FF001729FBB27A8
:10077000F00DB11D639FAA27F00DB11DAA1F649F44
:100780006627B00DA11D661F829F2227B00DA11DF7
:10079000621F739FB00DA11D621F839FA00D611D7D
:1007A000221F749F3327A00D611D231F849F600D9E
:1007B000211D822F762F6A2F11249F5750409AF0C7
:1007C000F1F088234AF0EE0FFF1FBB1F661F771F53
:1007D000881F91505040A9F79E3F510580F00C941E
:1007E00048030C9493035F3FE4F3983ED4F386955B
:1007F00077956795B795F795E7959F5FC1F7FE2BBE
:10080000880F911D9695879597F908950F931F93DB
:10081000CF93DF938230910510F482E090E0E09175
:100820000D01F0910E0120E030E0A0E0B0E0309743
:1008300019F1408151810281138148175907C8F08D
:100840008417950769F4109731F012960C9312975C
:1008500013961C9327C000930D0110930E0122C024
:100860002115310519F04217530718F49A01BD01FB
:10087000EF01DF01F801DBCF21153105F9F0281B6D
:10088000390B2430310580F48A819B816115710513
:1008900021F0FB019383828304C090930E01809327
:1008A0000D01FE01329644C0FE01E20FF31F819359
:1008B000919322503109398328833AC020910B014A
:1008C00030910C01232B41F420910201309103015E
:1008D00030930C0120930B01209100013091010114
:1008E0002115310541F42DB73EB7409104015091D7
:1008F0000501241B350BE0910B01F0910C01E2176F
:10090000F307A0F42E1B3F0B2817390778F0AC0132
:100910004E5F5F4F2417350748F04E0F5F1F50930F
:100920000C0140930B018193919302C0E0E0F0E051
:10093000CF01DF91CF911F910F910895CF93DF9356
:10094000009709F481C0FC01329713821282A091B2
:100950000D01B0910E01109781F420813181820F39
:10096000931F20910B0130910C012817390751F585
:10097000F0930C01E0930B0167C0ED0120E030E043
:10098000CE17DF0740F44A815B819E014115510576
:10099000F1F0EA01F5CFD383C28340815181840F06
:1009A000951FC817D90759F488819981840F951F1D
:1009B0000296918380838A819B8193838283211510
:1009C000310529F4F0930E01E0930D013DC0E901DA
:1009D000FB83EA8349915991C40FD51FEC17FD079A
:1009E00061F480819181840F951F0296E9019983BA
:1009F0008883828193819B838A83E0E0F0E0129672
:100A00008D919C911397009719F0FD01DC01F7CFB0
:100A10008D919C9111979D012E5F3F4F820F931FE7
:100A200020910B0130910C012817390769F4309798
:100A300029F410920E0110920D0102C0138212824D
:100A4000B0930C01A0930B01DF91CF910895F8941E
:020A5000FFCFD6
:080A520000000F012000640008
:00000001FF
